:020000040000FA
:10C000003DB8F396000000000002000028FD050086
:10C010000000000000000000000000000000000020
:10C02000FFFFFFFFFFFFFFFFFFFFFFFFFFFFFFFF20
:10C03000FFFFFFFFFFFFFFFFFFFFFFFFFFFFFFFF10
:10C04000FFFFFFFFFFFFFFFFFFFFFFFFFFFFFFFF00
:10C05000FFFFFFFFFFFFFFFFFFFFFFFFFFFFFFFFF0
:10C06000FFFFFFFFFFFFFFFFFFFFFFFFFFFFFFFFE0
:10C07000FFFFFFFFFFFFFFFFFFFFFFFFFFFFFFFFD0
:10C08000FFFFFFFFFFFFFFFFFFFFFFFFFFFFFFFFC0
:10C09000FFFFFFFFFFFFFFFFFFFFFFFFFFFFFFFFB0
:10C0A000FFFFFFFFFFFFFFFFFFFFFFFFFFFFFFFFA0
:10C0B000FFFFFFFFFFFFFFFFFFFFFFFFFFFFFFFF90
:10C0C000FFFFFFFFFFFFFFFFFFFFFFFFFFFFFFFF80
:10C0D000FFFFFFFFFFFFFFFFFFFFFFFFFFFFFFFF70
:10C0E000FFFFFFFFFFFFFFFFFFFFFFFFFFFFFFFF60
:10C0F000FFFFFFFFFFFFFFFFFFFFFFFFFFFFFFFF50
:10C10000FFFFFFFFFFFFFFFFFFFFFFFFFFFFFFFF3F
:10C11000FFFFFFFFFFFFFFFFFFFFFFFFFFFFFFFF2F
:10C12000FFFFFFFFFFFFFFFFFFFFFFFFFFFFFFFF1F
:10C13000FFFFFFFFFFFFFFFFFFFFFFFFFFFFFFFF0F
:10C14000FFFFFFFFFFFFFFFFFFFFFFFFFFFFFFFFFF
:10C15000FFFFFFFFFFFFFFFFFFFFFFFFFFFFFFFFEF
:10C16000FFFFFFFFFFFFFFFFFFFFFFFFFFFFFFFFDF
:10C17000FFFFFFFFFFFFFFFFFFFFFFFFFFFFFFFFCF
:10C18000FFFFFFFFFFFFFFFFFFFFFFFFFFFFFFFFBF
:10C19000FFFFFFFFFFFFFFFFFFFFFFFFFFFFFFFFAF
:10C1A000FFFFFFFFFFFFFFFFFFFFFFFFFFFFFFFF9F
:10C1B000FFFFFFFFFFFFFFFFFFFFFFFFFFFFFFFF8F
:10C1C000FFFFFFFFFFFFFFFFFFFFFFFFFFFFFFFF7F
:10C1D000FFFFFFFFFFFFFFFFFFFFFFFFFFFFFFFF6F
:10C1E000FFFFFFFFFFFFFFFFFFFFFFFFFFFFFFFF5F
:10C1F000FFFFFFFFFFFFFFFFFFFFFFFFFFFFFFFF4F
:10C2000018250020CDDD000087340100A1DD0000ED
:10C21000A1DD0000A1DD0000A1DD0000A1DD000026
:10C220000000000000000000000000008DDA0000A7
:10C23000A1DD00000000000035DA000053370100E6
:10C240000DDB00000DDB00000DDB00000DDB00004E
:10C250000DDB00000DDB00000DDB00000DDB00003E
:10C260000DDB00000DDB00000DDB00000DDB00002E
:10C270000DDB00000DDB00000DDB00000DDB00001E
:10C280000DDB00000DDB00000DDB00000DDB00000E
:10C290000DDB00000DDB00000DDB00000DDB0000FE
:10C2A0000DDB00000DDB00000DDB00000DDB0000EE
:10C2B0000DDB00000DDB00000DDB00000DDB0000DE
:10C2C0000DDB00000DDB00000DDB00000DDB0000CE
:10C2D0000DDB00000DDB00000DDB00000DDB0000BE
:10C2E0000DDB00000DDB00000DDB00000DDB0000AE
:10C2F0000DDB00000DDB00000DDB00000DDB00009E
:10C300000DDB00000DDB00000DDB00000DDB00008D
:10C310000DDB00000DDB00000DDB00000DDB00007D
:10C320000DDB00000DDB00000DDB00000DDB00006D
:10C330000DDB00000DDB00000DDB00000DDB00005D
:10C340000DDB000000000000000000000000000005
:10C3500000000000000000000000000000000000DD
:10C3600000000000000000000000000000000000CD
:10C3700000000000000000000000000000000000BD
:10C3800000000000000000000000000000000000AD
:10C39000000000000000000000000000000000009D
:10C3A000000000000000000000000000000000008D
:10C3B000000000000000000000000000000000007D
:10C3C000000000000000000000000000000000006D
:10C3D000000000000000000000000000000000005D
:10C3E000000000000000000000000000000000004D
:10C3F000000000000000000000000000000000003D
:10C40000DEE61E284CBBCE8F025B00003C00000025
:10C4100000BE00000100000000C2000000C20000D9
:10C42000FFFF02910000000000000000000000007B
:10C4300000000000000000000000000053B94AB9ED
:10C44000002908BF00281CBF4FF0FF314FF0FF301C
:10C4500000F070B9ADF1080C6DE904CE00F006F8FB
:10C46000DDF804E0DDE9022304B070472DE9F04770
:10C47000089E0D4604468A46002B7FD18A42174605
:10C4800041D9B2FA82F24AB1C2F1200105FA02F3AF
:10C490009740944020FA01F141EA030A4FEA174815
:10C4A0004FEA144C1FFA87F9BAFBF8FE08FB1EA3EB
:10C4B0000EFB09F14CEA0343994206D9FB1802D25C
:10C4C000994200F224810EF1FF3E591AA3B2B1FB4A
:10C4D000F8F008FB101100FB09F943EA0144A145FB
:10C4E00005D93C1902D2A14500F20E810138A4EB16
:10C4F000090440EA0E4000211EB1D4400023C6E9E1
:10C500000043BDE8F08702B9FFDEB2FA82F2002AEA
:10C510004FD1CB1B4FEA174E1FFA87F80121250C8C
:10C52000B3FBFEFC0EFB1C302B4608FB0CF945EA66
:10C530000045A9450AD97D192CBF01230023A9452F
:10C5400002D9002B00F0D9800CF1FF3CA5EB0905C6
:10C55000A3B2B5FBFEF00EFB105508FB00F843EA52
:10C560000544A04505D93C1902D2A04500F2C98076
:10C570000138A4EB080440EA0C40BDE78B4208D91F
:10C58000002E00F0B1800021C6E900050846BDE894
:10C59000F087B3FA83F1002946D1AB42C0F0A780FF
:10C5A000824240F2A4800846002EAAD0C6E9004A82
:10C5B000A7E7C2F12000974001FA02F34FEA174EB5
:10C5C000C14024FA00F51FFA87F894401D43B1FBDF
:10C5D000FEF02B0C0EFB101100FB08FC43EA01439C
:10C5E0009C4509D9FB182CBF012100219C4502D98B
:10C5F000002900F095800138A3EB0C03ADB2B3FB2A
:10C60000FEF10EFB113301FB08FC45EA0345AC4586
:10C6100005D97D1902D2AC4500F289800139A5EB1C
:10C620000C0341EA00417AE7C1F120048B4002FA91
:10C6300001F705FA01FCE24020FA04F8E54000FAAF
:10C6400001FE134348EA0C024FEA13484FEA124C2A
:10C650001FFA83F9B5FBF8FA08FB1A550AFB09F033
:10C660004CEA054C60450AD913EB0C0C2CBF012594
:10C670000025604501D9002D55D00AF1FF3AACEBF9
:10C68000000C92B2BCFBF8F008FB10CC00FB09F9DF
:10C6900042EA0C4CE14505D913EB0C0C01D2E14503
:10C6A0003BD8013840EA0A40ACEB090CA0FB0789F3
:10C6B000CC4545464A4602D306D1C64504D2013888
:10C6C000B8EB070569EB03022EB3BEEB05036CEB79
:10C6D000020C23FA01F20CFA04F42CFA01F3002103
:10C6E0001443C6E900430CE73146304609E7841A93
:10C6F00065EB030301209A4656E7ACF1020C3D447A
:10C7000024E702383C4434E702383C44EFE6AEF11B
:10C71000020E3B44D9E63146F3E602389C44C1E7B9
:10C7200002383B4468E7AAF1020A9C44A7E70239B1
:10C730003D4474E7704700BF2DE9E04F2746A0460F
:10C74000A146A246A346A446A2B02DEC000A84F35B
:10C75000008825462646A4473DEC000A22B0BDE8E5
:10C76000E08F00000B6801330B60014B1B6818471A
:10C770000000002007B50B46002102460191034846
:10C7800001A900F0EBF803B05DF804FB65C70000F9
:10C790002DE9F84FB0F81890044619F008089346B0
:10C7A0000DD001290CBF49F0100949F02009A0F86B
:10C7B00018908BF31188BFF36F8FBDE8F88F09F0E5
:10C7C0000709022907D1204606F0CBFC0028F0D04B
:10C7D0000128238B50D16769218B002F15DA25683A
:10C7E00021F00701C4E9008841F0010121830026FE
:10C7F000218B01F0070ACA4502D0A368002B5CD147
:10C800000DB9002E74D0002358E001F007035A1F21
:10C81000012A20D821F00701062B256889B2C4E936
:10C8200000880CD1002D2B4638BF00232BB1628B22
:10C830001B6801326283002BF8D141F002012046CF
:10C84000218306F08EFC06460028D1D0238B43F0CE
:10C8500020032383CBE7042B0CD121F0070189B2FD
:10C860002046218306F07DFC05460028BFD041F01C
:10C87000200121830025BAE7032809D1226923F08A
:10C880000703166843F00603002523832F46AFE70E
:10C89000042806D1226923F00703566843F00403F5
:10C8A000F2E7052806D1226923F00703966843F0D2
:10C8B0000503E9E700252E46E8E7012341F00801DA
:10C8C00021838BF31188BFF36F8F03BB002D33D10E
:10C8D00016B120462049B0474FF02003EFF3118BEB
:10C8E00083F31288BFF36F8F238B23F00803238316
:10C8F000238BDA0628D5012123F010032383B4F813
:10C90000189009F0070900297FF45BAF51E7A1688F
:10C910000029DBD00B68002B38BF00239946524614
:10C920003B462046D1F804B0D847B9F1000FCDD02E
:10C930004946D9F80030EEE729463B4652462046A4
:10C940002D6806F02AFCC1E713F020011EBF23F07A
:10C95000200302212383D2E7C73101002DE9F04FE4
:10C960008B4692461C46002591B002909AF8000032
:10C9700008B928465EE325280AF1010707D0594681
:10C98000029B98470028C0F25583013510E2182217
:10C9900000210AA806F0FBFD9AF80130252B78D07B
:10C9A00000229446164696461046394617F8013B33
:10C9B0002B2B00F09D8000F29480202B00F09B80B8
:10C9C000232B00F09A8028B19DF8300040F004003D
:10C9D0008DF83000BEF1000F05D09DF8300040F01A
:10C9E00008008DF830002EB19DF8300040F01000A6
:10C9F0008DF83000BCF1000F05D09DF8300040F0FC
:10CA000020008DF830002AB19DF8302042F040021D
:10CA10008DF830209DF8302002F04400442803D1E6
:10CA20006FF386128DF830209DF830202A2B42F0CB
:10CA300080028DF830207BD19DF831204B1C42F0D4
:10CA400001028DF831201A782E2A0CBF0121002115
:10CA50009DF8312061F341028DF8312074D15A786C
:10CA60002A2A6AD000210A260133184610F8012B21
:10CA7000A2F13007092F40F28E809DF830200E91F0
:10CA8000C2F3400040EAD17161F341028DF83020D9
:10CA90005AE00AF102078DF833309DF83130D9079A
:10CAA00040F1498154F8049BB9F1000F07DA9DF871
:10CAB0003020C9F1000942F004028DF830205A07F5
:10CAC00040F1428154F8048BB8F1000F80F24181AB
:10CAD0009DF831306FF341038DF831304FF0FF385E
:10CAE00037E12D2B0CD0302B7FF46DAF01225CE7AA
:10CAF0004FF0010E59E7012657E74FF0010C54E7BC
:10CB0000012052E733460CFB0202303A1E4616F86B
:10CB1000010BA0F13007092FF4D9994293D09DF869
:10CB200030100D92D20F62F341018DF830108AE778
:10CB30000B4600224FF00A0CE8E79DF83120023343
:10CB400042F004028DF831201F4617F8012B6C2AA1
:10CB500041D025D8682A2BD06A2A46D04C2A4CD0FE
:10CB60001F4617F8012B9DF83130782A8DF83320B5
:10CB700000F2D980572A4DD8412A03D0453A022ADB
:10CB800000F2D18004229DF8323062F302038DF866
:10CB9000323001239EE006FB01210346303964E771
:10CBA000742A26D07A2ADBD106229DF831300DE096
:10CBB0005A78682A9DF8312006D1012161F3C60216
:10CBC0008DF831209F1CCCE71346022262F3C60386
:10CBD0008DF83130C5E75A786C2A9DF8312001D1A3
:10CBE0000421EBE713460322F0E705229DF83130DC
:10CBF000ECE707229DF83130E8E7BDF8303023F448
:10CC0000F04323F0020343F4804343F00203ADF802
:10CC10003030A6E7A2F15801202900F2848001A05B
:10CC200050F821F0E9CC000027CD000027CD00000E
:10CC300027CD000027CD000027CD000027CD000024
:10CC400027CD000027CD000085CB000027CD0000B8
:10CC5000E9CC0000A9CC000085CB000085CB00000A
:10CC600085CB000027CD0000A9CC000027CD000017
:10CC700027CD000027CD000027CD0000F1CC00001B
:10CC8000E9CC00000DCD000027CD000027CD00002D
:10CC90000DCD000027CD0000E9CC000027CD00001D
:10CCA00027CD0000E9CC000001209DF8321003F0F0
:10CCB000780360F30201402B8DF8321002BF9DF81B
:10CCC000301041F001018DF83010632A31D1003B62
:10CCD00018BF01239DF83020C2F340010B4363F3DA
:10CCE00041028DF83020D8E602209DF83210DEE7B0
:10CCF00003219DF8322003F07803A3F1400061F393
:10CD0000020243428DF832204341E3E703219DF8BC
:10CD1000322013F0780F61F3020214BF01230023C5
:10CD20008DF83220D6E79DF8303043F001038DF8BE
:10CD300030300023CEE79DF93020002AACBF4FF001
:10CD4000FF39DDF83490BAE69B077FF5C7AEDDF812
:10CD500038800023CDE90D339DF832309DF8312025
:10CD600003F00703012BC2F3C30236D1D31E042BF9
:10CD700020D8DFE803F00307071F1F0054F8040B57
:10CD8000C11704E0073424F00704F4E80201CDE9F8
:10CD90000A019DF8303013F0030654D03B4652464A
:10CDA0005946029806F0DDFA0028C0F24381054496
:10CDB000BA46DBE554F8040B012A4FEAE071CDE9ED
:10CDC0000A0105D19DF828300A9300230B93E0E770
:10CDD000022ADED1BDF92800D2E7022B23D1D31ECF
:10CDE000042B13D8DFE803F0030A0A121200002113
:10CDF0002068231D0A900B911C46CAE7073424F0D3
:10CE00000703F3E80201CDE90A01F5E754F8043B12
:10CE1000012A0A934FF000030B93D3D0022AB8D112
:10CE2000BDF82830D0E7042B07D1073424F00704DD
:10CE3000F4E80201CDE90A01ABE7032B04BF54F883
:10CE4000043B0A93A5E79DF833007828B0D8622800
:10CE500022D825283FF493AD5828A9D1DDE90A014D
:10CE60000DF1260300930CAA04AB06F02FFA8246BC
:10CE7000B8F1000F0DF126000CDB9DF83020A0EB7F
:10CE80000A036FF3861298458DF8302002D9A8EB7B
:10CE900003030D9380463DE06338152888D801A12F
:10CEA00051F820F025CF000089CF0000B1CD00005F
:10CEB000B1CD0000B1CD0000B1CD000089CF0000A0
:10CEC000B1CD0000B1CD0000B1CD0000B1CD00006A
:10CED000E7CF0000B5CF0000B9CF0000B1CD000012
:10CEE000B1CD0000FDCE0000B1CD0000B5CF0000F7
:10CEF000B1CD0000B1CD0000B5CF0000B8F1000FFA
:10CF0000DDF828A00ADB4146504606F0F9FA002673
:10CF10000AEB0008BAF1000F0CD149E7504606F0C1
:10CF2000E8FAF4E700260A9B0DF111088DF810309D
:10CF30000DF1100AA8EB0A0306B101339DF8322067
:10CF4000D0066BD5023352060D9948BF0E9A0B449A
:10CF500048BF9B18B9F1000F79DD9DF83020A9EB8F
:10CF60000309C2F380030393530770D4500664D5BA
:10CF700046B159463046029B984700285ADB039B2E
:10CF800001351E46302359E01E0711D413F0100658
:10CF900018BF2026DDE90A23002A73F10001BFF63D
:10CFA0005DAF524263EB43032D26CDE90A2355E7DB
:10CFB0002B26EFE7002651E70A9848B30DF1260328
:10CFC0000093002104AB0CAA06F080F9BDF83230C2
:10CFD000824603F0EF0343F4F04343F010030026CE
:10CFE000ADF8323044E70A9B072A3FF6E1AEDFE8AE
:10CFF00002F00D04060D08080D0D1D70D8E61D8009
:10D00000D6E62846E917C3E90001D1E61D60CFE660
:10D01000DFF8C4800646A8F1050A8BE7110748BF70
:10D02000013390E7184603935946029B984700281E
:10D03000039B04DA11B0BDE8F08F20234D444A462B
:10D04000002AA5EB090109F1FF39EBDC0D4636B1E9
:10D0500059463046029B98470028EBDB01359DF886
:10D060003230D90601D41A0706D559463020029B22
:10D0700098470028DEDB01359DF83230DB0607D506
:10D0800059469DF83300029B98470028D2DB0135B2
:10D090000D9E2E44731B002B16DC43465246594608
:10D0A000029806F05EF90028C4DB0544A944A9EB08
:10D0B0000503002B7FF77CAE59462020029B984742
:10D0C0000028B7DB0135F2E759463020029B98472C
:10D0D0000028AFDB0135DDE778410100044608B5E3
:10D0E0004FF02002EFF3118382F31288BFF36F8FAA
:10D0F00006F031FB204600F099FE034806F024F8C4
:10D1000000F012FCFCE700BF794101004FF0200263
:10D11000EFF3118382F31288BFF36F8F0121044A6A
:10D12000C2F8401583F31188BFF36F8F002070475A
:10D130000090035020B1034B800143F001031847D6
:10D14000704700BFF03D010084B004AB03E9070065
:10D150009DF80430062B07D10122044BC3F80025AB
:10D16000BFF34F8F20BFFDE704B070470040005071
:10D17000F8B505464FF02003EFF3118683F31288CC
:10D18000BFF36F8F0B4B1C68002C38BF00245CB1C1
:10D19000094FD4E90132002D08BF13460BB138788E
:10D1A00098472468002CF4D186F31188BFF36F8F61
:10D1B000F8BD00BF58020020600200201FB50F4BD1
:10D1C0001A68BAB901221A600D4A01AB07CA83E88E
:10D1D00007000C4A4AB193E8070006F0D9F800208E
:10D1E00005B05DF804EBFFF7C3BF82F31188BFF30E
:10D1F0006F8FF4E705B05DF804FB00BF040000206A
:10D200006002002091330100F0B589B06E461B4CDE
:10D2100001460546304606F0C6F896E8070084E861
:10D220000700207840B30021154B19606B1C0ED00D
:10D2300017464FF40046002112480023E6FB070181
:10D24000114AFFF7FBF80121281A06F01FFC02F033
:10D2500045FD0120FFF78CFF94E8070005AB83E84C
:10D2600007000A4A1AB193E80700FFF76DFFFFF7BE
:10D27000A5FF02F00DFF207809B0F0BD600200208C
:10D28000040000203F420F0040420F0049D100003F
:10D29000034610B588B08DF807300DF107030293EF
:10D2A0000123094ACDE905131068039300220723DF
:10D2B0008DF810208DF81C30836802225C6802A96A
:10D2C0004623A04708B010BD6C02002070B586B0A0
:10D2D0000E460DF1070105461446FFF7D9FFC0B908
:10D2E0000D4B9DF80720186802AB0393022322EA36
:10D2F000060222438DF807208DF808508DF809208A
:10D3000004938DF81430836801225C6803A94623D6
:10D31000A04706B070BD00BF6C02002008B502F047
:10D3200087F9044B002818600CBF6FF01200002032
:10D3300008BD00BF6C02002000280DDB012243095C
:10D3400000F01F0002FA00F0044A203342F82300E4
:10D35000BFF34F8FBFF36F8F704700BF00E100E056
:10D36000F7B500281C4614BF4FF400534FF4004398
:10D370008A42154640D90A46204F002839D002F586
:10D38000E07647F82640561CB54230D15D431C4834
:10D390004B43009505F0D8FE1A4B14F0100F1A49B4
:10D3A0001A4808BF194605F0CFFE14F0040F14BF49
:10D3B00072212D21164805F0C7FE14F0020F14BF8C
:10D3C00077212D21124805F0BFFE14F0010F0CBF8C
:10D3D0002D2178210E4805F0B7FE6C210C4805F090
:10D3E000B3FE0C4803B0BDE8F04005F0ADBE3246D8
:10D3F000C3E702F5C076C4E703B0F0BD00300050CB
:10D40000B7410100AB410100A241010036430100D8
:10D41000D14101004C45010030B54FF4C13485B015
:10D420004FF4C1312548264D05F08EFE2168254870
:10D4300005F08AFE2968244805F086FE10220021A6
:10D44000684606F0A4F8236868460093029400F04A
:10D4500047FD012000F076FD002000F05FFD002078
:10D4600000F084FD0121002000F09EFD00F092FDFF
:10D4700016482C6805F068FE0820FFF75DFF144A87
:10D4800024F00104D2F82038002B07DA03F003035C
:10D49000023B012B9CBF0F4BC2F820380121082012
:10D4A00005F0C2FFBFF34F8FBFF36F8F64086400B6
:10D4B0002046214622462346FFF73EF9D44101008B
:10D4C00004820100EB410100004201001E42010004
:10D4D00000300050000100802DE9F8434A4805F073
:10D4E00033FE002140F2171308460322FFF738FFEE
:10D4F00040F20713202203210020FFF731FF4348A9
:10D5000005F022FE4249434AC1F30E03C3F500432E
:10D51000B3FA83F3C3F11B03DBB2C1F3C431C2F826
:10D520000015C2F80435D2F80015D2F804253A489F
:10D53000520105F009FE354805F006FE00F082F8BC
:10D54000014610B1354805F0FFFD0024344805F0D0
:10D55000FBFD40F21713082200210120FFF700FF16
:10D560002C4D40F20713202208210120FFF7F8FE7E
:10D57000264805F0E9FDC5F880442A4805F0E4FD99
:10D58000294EC5F8C044294F294DDFF8B48095F8DD
:10D5900005902146B9F1000F14BF33463B46404683
:10D5A0002A6805F0D1FDB9F1000F0CD121480134F2
:10D5B00005F0CAFD202C05F10805E8D11348BDE8A7
:10D5C000F84305F0C1BD95F8049095F90400FFF704
:10D5D000B3FE4FEA890303F1A04303F54053B9F1C9
:10D5E000310FD3F8002806D0002A07DA02F0030230
:10D5F000023A012A02D8104AC3F8002801214846FD
:10D6000005F012FF0D48D2E7544201004C450100DD
:10D61000E07F01000030005078420100BE4201006E
:10D62000EE4201001043010049420100AF410100F8
:10D63000F83D010039430100000100804043010032
:10D640002C43010000220248114603F017B800BF26
:10D650007002002070B50C461546064650B96FF0B2
:10D660001500BDE87040714672467346F4468EF36D
:10D67000008C7447002AF2D005F019FF0128EED083
:10D68000B4F5404F16D32B19B3F5424F05D90B4AC9
:10D69000944209D92D32934209D82A462146304670
:10D6A00005F06AFF0020DCE7054A944202D9054AEA
:10D6B0009342F2D94FF0FF30D3E700BFFF01FF00E4
:10D6C0002F01FF003801FF0070B506460D461446D5
:10D6D00005F0EDFE01280DD0204605F0E8FE0128FA
:10D6E00008D023462A463146084802F0FBFF23684B
:10D6F000AB4201D06FF01500BDE870407146724634
:10D700007346F4468EF3008C744700BF700200200D
:10D710002DE9F04F81460D4685B081B305F0C7FE77
:10D7200001282CD1284605F0C2FE012827D04FF051
:10D730000008DFF85CB0DFF85CA001AF5BF8046BB9
:10D740009AE807004E4487E807000C223946304625
:10D7500005F0EBFE044600B9A6B908F10108B8F1DE
:10D76000050FEBD16FF00D04204605B0BDE8F04F7A
:10D77000714672467346F4468EF3008C74476FF020
:10D780001504F1E73C223146284605F0F5FEEBE7AB
:10D79000F83E0100C03D0100014802F067BF00BF34
:10D7A0000C3F010008B5B0B14368042B0DD1002235
:10D7B0000368D3E8EF1F012903D1C3E8E02F002855
:10D7C000F7D1074808BF104608BD3BB1006802F01A
:10D7D0009BF90020F8E76FF4E040F5E70148F3E734
:10D7E000E98FFFFFEA8FFFFF10B5044618B90D4B14
:10D7F0000D485B689847616808290DD031F0040333
:10D800000AD011F0020108D02146084806F032F88B
:10D81000002323600023636010BD1422206805F0FC
:10D82000B6FEF7E760000020754401002C040020DC
:10D8300010B5044618B9164B16485B6898476368DC
:10D84000042B23D0082B21D0CBB92368BBB94FF0D0
:10D85000FF324FF0FF3321460F4802F003F808B9BA
:10D8600023681BB90A4B0D485B68984714220021B6
:10D87000206805F08CFE636843F002036360206853
:10D8800006F02EF8636843F00103636010BD00BF2B
:10D8900060000020754401002C0400209B4401001E
:10D8A00008B5E8B14368042B0CD101220368D3E822
:10D8B000EF1F002903D1C3E8E02F0028F7D10BD1D7
:10D8C000002008BD53B100684FF0FF324FF0FF3326
:10D8D00002F09CF80028F3D00348F2E70348F0E791
:10D8E0006FF4E040EDE700BFE98FFFFFEA8FFFFF35
:10D8F00008B5064940231422054805F0A0FFBDE8FD
:10D9000008400449044802F065BF00BF48040020F5
:10D910002C040020243F0100143F01000149102283
:10D920000A60704710ED00E072B6404080F3118845
:10D93000BFF36F8FBFF34F8F30BF62B6BFF36F8FF0
:10D94000704700BF72B6494081F3118820BF80F351
:10D95000118862B6704700BF43B2002B08DB01227A
:10D9600000F01F0002FA00F0024A5B0942F82300AF
:10D97000704700BF00E100E0054B420953F8222048
:10D98000012300F01F0003FA00F01040704700BFB1
:10D9900000E100E043B2002B01F10101ACBF03F153
:10D9A0006043064B4FEA4111C9B2ABBF03F5614377
:10D9B00000F00F0083F800131954704714ED00E0D5
:10D9C00030BFFFF7FDBF00BF0B4A08B50B4B22F07D
:10D9D0007F029A60BFF34F8FBFF36F8FD3F8882019
:10D9E00022F47002C3F8882001F092FE02F078FC65
:10D9F00000F0E0F901F096FE00C2000000ED00E04A
:10DA0000094A0A49936809685867996708494B6841
:10DA100043F080534B60002383F31188BFF36F8F73
:10DA20009368986F704700BF0C0A0020E83F010020
:10DA300000ED00E013498A684FF030001044EFF326
:10DA4000098C80E8F01F202080F31288BFF36F8FCD
:10DA50000D4F4FF00066CA698A603E60506F002328
:10DA6000536780F3118802F1300090E8F01F8CF3C7
:10DA7000098802F1000004B505F00CFDBDE8044082
:10DA8000704700000C0A002004ED00E01EF0040FB7
:10DA90000CBFEFF30880EFF30980816911F8021CD5
:10DAA0000229FFD001B505F0B7FC01BD42F8203CCA
:10DAB000009B0B4942F81C3C019B21F0010142F8FC
:10DAC000183C029B42F8081C42F8143C4FF080734B
:10DAD00042F8043C0023203A02654367704700BFC8
:10DAE000B9320100084B9860436E83F30B881046EF
:10DAF00081F30988002163B681F31188BFF36F8F2A
:10DB00000022002305F0D8FB0C0A002001B572B6F4
:10DB10000B4A906900281EBF0021916105F0D9FED3
:10DB200062B6EFF30580A0F110004FEAC00005498E
:10DB3000014409C99847BDE801400349084700006E
:10DB40000C0A0020903B01004DDB0000044B99685B
:10DB5000D869884203D003494FF080520A60704769
:10DB60000C0A002004ED00E00E4B9A6A9A6A9A6A49
:10DB7000920708D55A6B9A6A120604D518B19A6AA8
:10DB800022F080029A620020064B9A6A9A6A9A6A88
:10DB9000D20658BF9A6A9A6A42F0FF029A620870E7
:10DBA000704700BF00ED00E00D4B9A6A9A6A9A6ACE
:10DBB000920508D59A6B9A6A120404D518B19A6A2C
:10DBC00022F400429A620020054B9A6A9A6AD205B2
:10DBD00058BF9A6A9A6A42F47F429A620870704704
:10DBE00000ED00E0094B9A6A9A6A986A9A6A9A6A02
:10DBF0009A6A9A6A9A6A10F480106FEA02426FEA8F
:10DC0000124218BF02209A62704700BF00ED00E088
:10DC10000D4B9A695A695A69D0070FD45A6991070E
:10DC20000CD45A69520709D45A69100706D45A69A4
:10DC3000D10603D45A69920658BF5A695A6942F00C
:10DC4000FF025A61704700BFD0ED00E070B54A4B4B
:10DC50000D465B6800268AB0C3F3080386F311887B
:10DC6000BFF36F8F02F07F41B1F17F4F1CD112F0F3
:10DC7000010118D0540602F0080177D482F00402A2
:10DC8000C2F3800661B1EFF389850022033B8DF872
:10DC90000720042B63D8DFE803F009585C4E6000CE
:10DCA000EFF38885F1E70E463546EEE7324BDC6A46
:10DCB00014F0020453D1DA6A002A17DBDB6A5B0036
:10DCC00014D5AB6933F8022C4DF602739A420CD08E
:10DCD00003F1604303F626631B78FBB101200DF1CD
:10DCE0000701FFF741FF044600E02C689DF807306C
:10DCF00093B92022294602A805F03EFC099B86B371
:10DD0000C3F3080222B96FEA53236FEA432309934E
:10DD1000204602A905F07EFB0AB070BD174B1B78A8
:10DD20002BB101200DF10701FFF73EFFDBE7144B9C
:10DD30001B889BB213B1FFF755FFD4E7114B5B690A
:10DD4000002BD3D0FFF764FFD0E700200DF10701CF
:10DD5000C7E700200DF10701E6E7FFF759FF0024B0
:10DD6000C4E723F4FF7323F00103D0E700298CD12B
:10DD70000546012689E700BF00ED00E029ED00E03F
:10DD80002AED00E0D0ED00E0044B5A6942F01002A9
:10DD90005A615A6942F480625A61704700ED00E0AE
:10DDA000EFF30880EFF3098101B57246FFF74EFFEC
:10DDB00001BD00BF002320210348C2180133412BBD
:10DDC00082F80013F9D1704700E100E0002080F3F1
:10DDD0001488BFF36F8F002080F30A8880F30B88CC
:10DDE00005F078FE00200E490860BFF34F8F0D4804
:10DDF00080F3088800F03CF8202080F311880A485E
:10DE00004FF40061401880F30988EFF31480022179
:10DE1000084380F31488BFF36F8FFFF7D5FD000030
:10DE200094ED00E01825002058260020BFF34F8F06
:10DE30000549064BCA6802F4E0621343CB60BFF3A6
:10DE40004F8F00BFFDE700BF00ED00E00400FA05C2
:10DE500000231846054A1168C1F307218B4200D1FF
:10DE60007047936010610133F8E700BF90ED00E068
:10DE700010B572B6002484F31388FFF7E9FF0E4A49
:10DE8000234611464FF0FF3403F120000133102BDD
:10DE900042F82040F8D100234FF0FF3003F1600238
:10DEA0000133102B41F82200F8D162B6BFF34F8F37
:10DEB000BFF36F8F10BD00BF00E100E0064B9B6811
:10DEC000834207D1EFF3058323B1044A536843F03B
:10DED0008053536002F0B2B90C0A002000ED00E05C
:10DEE00082680D4B9A60036883F38888436883F3E4
:10DEF0008988027B02F00101EFF3948323F003038E
:10DF0000920748BF43F0020309B143F0010383F3D2
:10DF10009488BFF36F8F704700ED02E0084AD36822
:10DF200048B123F400531B041B0C43F0BF6343F4BC
:10DF30000033D36070479BB243F40053F5E700BF52
:10DF400000ED00E0084AD36840B19BB243F480433F
:10DF500043F0BF6343F40033D360704723F480433E
:10DF60001B041B0CF4E700BF00ED00E0084AD36877
:10DF700040B19BB243F0080343F0BF6343F4003366
:10DF8000D360704723F008031B041B0CF4E700BFA9
:10DF900000ED00E0034AD2F88C3043F44063C2F84D
:10DFA0008C30704700ED00E0084B1A6818B142F061
:10DFB00001021A60704722F001021A601A6811B15A
:10DFC00042F00202F5E722F00202F2E7D0ED00E0B3
:10DFD0001FB5094C094A23460121094800F0DCF825
:10DFE00000230393074B0121E41A01A80193029433
:10DFF00000F0DCF804B010BD00000120000000209B
:10E00000383F01003001002010B50B680C7A23F076
:10E010001F0204F01F031A43CB68640923F01F0397
:10E02000044943EA440343F001038860CA600B617A
:10E0300010BD00BF90ED00E02DE9F04F884614467A
:10E0400006464FF000094A4D85B0C14505DA7768AC
:10E05000BFB31F2F05D86FF01504204605B0BDE8EB
:10E06000F08FFB06F7D1D6F800A01AF01F0FF2D1FF
:10E07000504605F013FA834607EB0A00013805F015
:10E080000DFA8345E7D11BF1160FE4D0631E5B4503
:10E09000E1DBC5F808B0E968C5F808B02F6921F0E0
:10E0A0001F01D6E900321A44994247F01F0702F1D6
:10E0B000FF3A1CD1574508D131465FFA8BF005F085
:10E0C000FBF909F101090C36BFE73146C5F808B084
:10E0D000EB6822F01F0203F01F031A43EA60E0B26C
:10E0E00005F0EAF910F1160FB5D0441CE9E7013B41
:10E0F0005745E0B223F01F03C5F808B006D12A69DE
:10E10000314602F01F0213432B61E9E7296901F050
:10E110001F010B432B61314605F0CEF910F1160FAC
:10E1200099D0C5F808B0EA689DF80830013F62F35D
:10E1300004038DF808302B699DF808205B0863F311
:10E1400047128DF80820D6E900321344009323F0DB
:10E150001F033B44441CA3EB0A0AE0B22AF01F034E
:10E160000F2803933FF677AF6946FFF74DFFBCE7F3
:10E1700090ED00E00522034B5A60BFF34F8FBFF3D1
:10E180006F8F704790ED00E0BFF35F8F0022014B6F
:10E190005A60704790ED00E010B5034C2278FFF70D
:10E1A0004BFF207010BD00BF441300202DE9F74F36
:10E1B000264D8A4606464FF00008AB46244FD04510
:10E1C0001BDAD6F80490B9F1000F39D0316808464F
:10E1D000019105F063F90199044609EB010001384A
:10E1E00005F05CF984424FF014021A4B08D06FF02E
:10E1F000150302FB08F84BF8083003B0BDE8F08FB8
:10E2000014F1160F2C60F8D01978A142F5DD02FB4D
:10E2100008B0BC60BC60FC6800F10801007B64F3DE
:10E220000400087138690C79400860F347140C71D8
:10E23000F96821F01F016960396921F01F01296126
:10E2400008F1010814350C36B9E700BF4809002071
:10E2500090ED00E04413002038B50E4C2568102DD9
:10E2600014D8FFF791FF00200B4B0C4A1A6385422C
:10E2700005D10B4B1D70FFF77DFF002038BD616895
:10E2800001EB0011FFF7C0FE0130F0E74FF0FF3067
:10E29000F4E700BF443F010090ED00E0AAFF440016
:10E2A0004413002008B51248FFF738F8F0B905F01C
:10E2B00097F8D8B905F0A0F8C0B9012005F0A1F889
:10E2C000A0B9012005F091F880B9072005F076F893
:10E2D00060B91F2005F06CF840B9072005F079F807
:10E2E00020B9BDE80840012005F06EB808BD00BFA8
:10E2F000D74401000E4A70B5841A05460C200E461C
:10E300004021A3100B4C5C43E4B200FB0420084402
:10E3100005F04FF9011E05DB074B03EBC4046368EE
:10E320009847002128463346BDE87040184700BF93
:10E330006C090020B76DDBB6803F01002DE9F0418C
:10E340000C25104E8046841BA3100F4C0F465C43D7
:10E35000E4B2654305F140004021304405F042F944
:10E36000011E09DB094A7319C3E90E27084B53F84C
:10E370003430BDE8F041184740463B46BDE8F04127
:10E38000184700BF6C090020B76DDBB647360100A7
:10E39000803F010070B50022012104460520FFF7EF
:10E3A000F9FA0520FFF7D8FA0F4800F073FD0F4B7C
:10E3B000984215D105F0E2F926690D49304604F07E
:10E3C0001FFF00280BDB012535642469084904F18F
:10E3D0001C0004F015FF002801DB0020E56470BD7F
:10E3E0006FF00400FBE700BF29E400000000AD0B64
:10E3F000903F010001460C2300224B43084870B5B2
:10E40000C4184033D4E90E561844A26305F008F945
:10E410002DB132462B46BDE870400248184770BD0A
:10E420006C090020303B010010B1012804D0704776
:10E43000034B1B6C5B0701D1FFF7DCBF704700BFCC
:10E440006C09002008B54FF02003EFF3118183F32E
:10E450001288BFF36F8F124A136843F0020013F063
:10E46000010310600CD04FF05022D2F80C34D2F8D7
:10E470000C2413F0010303D00A4805F0D1F801235E
:10E4800081F31188BFF36F8F23B1BDE808400020EE
:10E49000FFF7B0BF0120BDE8084000F00BBD00BF92
:10E4A000BC090020AC090020074BD3E8EF2F22F075
:10E4B0000201C3E8E01F0028F7D1D30702D40120EE
:10E4C00000F02ABD704700BFBC0900201FB5002224
:10E4D0000123CDE902236B46084ACDF800D0CDF8E0
:10E4E00004D005F0D6F8002805DB4FF48042002365
:10E4F000684601F06FFB05B05DF804FB653601006E
:10E500002DE9F843012206463949D1E8EF3FC1E839
:10E51000E02F0028F9D133B9364937484B60CB603A
:10E520008A6004F080FE731E012B32D8012E07D1C1
:10E530004FF05023D3F81C3403F00303022B28D0F0
:10E5400005F0C1F9044618B92C4B1B78002B47D1B4
:10E550004FF02003EFF3118583F31288BFF36F8F21
:10E560000124274FDFF89C80DFF89C904FF0502269
:10E57000D2F81834D2F81824D2030CD503F00303D0
:10E58000022B01D0012E06D124B385F31188BFF3ED
:10E590006F8FBDE8F883C4B12846FFF7D3F94FF079
:10E5A0005022D2F81835DBB2012BDFD139680029AF
:10E5B000DCD00021396039680221C2F81815202208
:10E5C000C8F88021C9F80030D0E70021212001F0EF
:10E5D00015FEE4E74FF050230222C3F80423D8E7E6
:10E5E0004FF0502302220546C3F80823B9E700BFC5
:10E5F000C00900205C090020880900205513002074
:10E600000451005000E100E00850005010B50446ED
:10E61000002201210A20FFF7BDF960682369064A3C
:10E6200000F1080100F0EEFC044B984214BF6FF0BB
:10E630000F00002010BD00BF41E600000000AD0B40
:10E640000378012B08D0022B08D04BB9054B0B6285
:10E6500001F1100001F09EBA034BF8E7034BF6E717
:10E66000034BF4E70000AD0B0100AE0B0200AE0B54
:10E670000100AD0B2DE9F04F1D46466889B00769D2
:10E68000338B0C4693460021142203A8D7F8289018
:10E69000009304F07CFF8DF80D504FF0FF324FF0E7
:10E6A000FF33384601F096FA07F1100A4FF00008E0
:10E6B00000220023504601F08DFA304600F0E8FCBD
:10E6C0004546D84501D3002449E0217A0A0700F1E4
:10E6D0008E8008F10108D84562680AD28B0708D4F9
:10E6E000237D81EA030000F0010003F004030343EB
:10E6F00016D0BDB10023009805EB020C844579D8F3
:10E70000C80706D4216809EB0500019304F034FF23
:10E71000019B62681544ADB2002B37D00C34D0E7B2
:10E720000123E8E7C90724D5002523680693636819
:10E730000493237A304603F0010213F0020F8DF8A0
:10E740000C2003A90CBF2022002200F0CFFC2E4B8E
:10E75000984221D00B33984252D06FF004043046D7
:10E7600000F0A6FC384601F015FA204609B0BDE8D5
:10E77000F08F216801F06043B3F1005FD4D0738B58
:10E7800093423AD3484604F0F7FEA588002DCBD03B
:10E79000CDF818900495CCE74FF480420023504602
:10E7A00001F018FA38B1304600F082FCD6E90201D7
:10E7B00000F0DCFED1E73B6A134A9342CDD1237AC5
:10E7C000DB0701D40025A9E7069B9945FAD123462A
:10E7D00008E0A91AD8688DB219FA81F1019304F002
:10E7E000CBFE019B5A680C3B9542F2D2EAE76FF0F0
:10E7F0008504B4E76FF01B04B1E76FF01504AEE7D2
:10E800006FF00F04ABE700BF0000AD0B194970B506
:10E81000044622F07F460868C1E90023A6F50013EC
:10E82000101AB3F5400F4FF000050AD20125124B24
:10E8300019680A060B0A9219104943F10003C1E94D
:10E84000002301F03FFEA30003F1502303F58033C2
:10E85000D3F84025B2420BD11DB94FF40002C3F8E2
:10E8600040254FF48030064B00FA04F4C3F84443CB
:10E8700070BD00BF48010020CC09002030010020FD
:10E88000005001500123834010B5DC430D4AD2E80B
:10E89000EF1F01EA040CC2E8EECFBEF1000FF6D183
:10E8A0004FF4803202FA00F002F15022C2F808035D
:10E8B000BFF35F8FBFF36F8F0B4214BF01200020A7
:10E8C00010BD00BFC809002001230E4A8340D2E8D2
:10E8D000EF1F1943C2E8EC1FBCF1000FF7D14FF452
:10E8E0008033094A8340C2F80433084BD3E8AF3F72
:10E8F00023FA00F0C30742BF4FF40012044BC3F8E1
:10E9000000217047C809002000500150C4090020B0
:10E9100000E100E00D4B1B68190A1806BFF35F8F7A
:10E920000B4BD3F80435C01841F10001B3F5801F3B
:10E930000AD2084BD3E90023994208BF904203D280
:10E9400010F1807041F10001704700BFCC09002038
:10E9500000500150300100202DE9F74F16461F46A8
:10E960000546FFF78FFF0090FFF7D4FFB94208BFBD
:10E97000B0427BD200234FF08072B6EB000867EB09
:10E9800001094B4508BF42457DD3404B03EB0513BE
:10E99000D3E902239F4208BF964251D04FF4803BF7
:10E9A00026F07F4214464FEA850905F1500809F127
:10E9B00050294FEA880809F580391FFA88F808F1CC
:10E9C0005028D9F84005324B08F580380BFA05FB82
:10E9D000D3F804A5A0EB0A0020F07F402AF07F4185
:10E9E0000128C9F8401505D10192132005F06CF8F3
:10E9F000274B019A0AF1020CA4EB0C0020F07F4097
:10EA00000021B0F5000F88BF6446C8F80010D8F8A0
:10EA1000000024F07F40C3F844B3C9F84005D3F8A0
:10EA20000405824506D0201A023820F07F40B0F558
:10EA3000000F19D8A41A24F07F44321947F10003BB
:10EA4000124C290104EB0510C0E902230C9A0D9B1E
:10EA5000625000244360009B13B12846FFF734FF47
:10EA6000204603B0BDE8F08F2046B1E70123094AF4
:10EA7000AB40D2E8EF1F1943C2E8E01F0028F8D1ED
:10EA800032463B46DCE76FF01504E4E7380100202E
:10EA900000500150C4090020334B2DE97343D3F8D3
:10EAA00004339A0709D5314B1A6832B100221A6033
:10EAB0002F4A1B681368013313604FF02003EFF3F4
:10EAC000118283F31288BFF36F8F274BD3F804337F
:10EAD000DB030ED5274BD3E8EF1F21F00100C3E87D
:10EAE000E40F002CF7D1244B002936D119680029F6
:10EAF00033D1002382F31188BFF36F8F53B3FFF735
:10EB000009FF04464FF02003EFF3118083F31288CE
:10EB1000BFF36F8F194B0022D3E90289494508BF23
:10EB200044451FD3D3E900164FF0FF344FF0FF35B3
:10EB30001A604FF48032C3E902450B4BC3F84823F7
:10EB400080F31188BFF36F8F21B142464B460020FE
:10EB50000096884702B0BDE87083002119601B68E9
:10EB60000123C7E71146EBE7005001500451015063
:10EB7000CC090020C4090020405101503801002078
:10EB800073B500244FF0FF304FF0FF31174D184B95
:10EB9000C5F80845C3E902014FF4803302264FF45B
:10EBA0000012C5F80433134B0121C5F80463152086
:10EBB000C3F880212246FEF7EDFE1520FEF7CCFEBD
:10EBC00001230D4AC5F8046313600C4A2B601360DF
:10EBD0000B4B0C4A0093204600230194FFF7BCFE28
:10EBE0003046FFF78DFC204602B070BD005001504A
:10EBF0003801002000E100E008500150C809002061
:10EC00000DE80000FFFF7F00144B13B5B0F1FF3F8C
:10EC100008BF1846441E002C1DDD9C42A8BF1C46A0
:10EC2000FFF778FE0E4B0F49D3E90023801AB0F5A9
:10EC3000000F28BF0024013004440848009184429A
:10EC400028BF044600201219019043F10003FFF78A
:10EC500083FE02B010BD0024E2E700BFFFFF7F008B
:10EC6000480100200DE8000008B5FFF753FE024BF5
:10EC70001B68C01A08BD00BF480100202DE9F04301
:10EC80000025214C214E54F8048CDFF8889085B083
:10EC9000A84503D8002005B0BDE8F083636A96E874
:10ECA00007001F6801AB83E807000C2219463846AD
:10ECB00004F03BFC90B98FB1636A21691B681A6943
:10ECC00091420BD19A69A169914207D8E1699142B9
:10ECD00004D962695B6932EA03030AD0276A67B123
:10ECE0000B4804F031FA404080F311884FF00400E3
:10ECF00002DFE36801351C44CAE7484604F024FA01
:10ED0000636A1F60F5E700BF3CC40000CC3D010012
:10ED1000F24401001B450100054B1868043B1B68C9
:10ED2000092B03D1431E58425841704700207047B9
:10ED30003401FF004A4A08B5136843F00203136028
:10ED4000484B1B68092B01BF4FF050230022C3F82A
:10ED50001421C3F81821FFF7DFFF30B10123424A25
:10ED60001360A2F63822C2F878353E4B1B68092B97
:10ED700007D13E4B1B68012B1EBF01223C4BC3F841
:10ED80007825FFF7C9FF10B10E223A4B1A60354BB8
:10ED90001B68092B04D10022374B1A6001225A60EC
:10EDA0000022D30003F57F03D3F80013013108D00C
:10EDB000D3F800130132D3F80433B2F5807F0B602F
:10EDC000EFD12E4BDA69D1073BD52D4B1946D3F83D
:10EDD0000024012AFBD1C3F80425D1F80034012B0B
:10EDE000FBD1264BDA69D20708D5DA69244922F02B
:10EDF0000102DA61D1F80024012AFBD11A6A01323A
:10EE00000AD11A6A22F0FF0242F020021A621C4A5A
:10EE1000D2F80034012BFBD10022194BC3F8042592
:10EE2000D3F80024012AFBD1BFF34F8F1549164BAD
:10EE3000CA6802F4E0621343CB60BFF34F8F00BF98
:10EE4000FDE71B6A0133C0D00E4AD2F88C3043F480
:10EE50004063C2F88C300D4B0D4A1A6008BD00BFEC
:10EE6000D0ED00E03001FF00384A00503401FF00CF
:10EE700000400050E4AE03500C4700500080FF00FB
:10EE80000090035000ED00E00400FA05540000205B
:10EE90000090D003044B1A7922B9012218601A712C
:10EEA0000248704702487047D00900200000AD0BAF
:10EEB0000C00AD0B10B1012820D070474FF050224C
:10EEC000D2F81834D2F81814C90311D503F003038B
:10EED000022B0DD1C2F8183500220D4B1A601B68A9
:10EEE00002224FF05023C3F8042301229A60704796
:10EEF0004FF050230122C3F81825EDE70022054BFF
:10EF00001A601B684FF05023C3F804031860704761
:10EF1000045100500051005038B510B1012818D0EC
:10EF200038BD4FF050230222012142F210751C46D9
:10EF3000C3F80823154A10601268154A1160D4F806
:10EF40001834DB03ECD5012004F016FC013DF6D1AA
:10EF5000E6E74FF05024002242F210750D4BC4F842
:10EF600008031A601B680C4B1860D4F80C34D4F8F2
:10EF70000C2403F00103D203D2D5002BD0D0012002
:10EF800004F0FAFB013DF0D1CAE700BF0451005084
:10EF90000C5000500051005004500050164B10B55A
:10EFA0001A6852B1002018601B6801224FF05023EC
:10EFB000C3F80823114B1B689847114B1A688AB194
:10EFC00000221A601B684FF05023D3F81824D3F89E
:10EFD000181402F00302012A4FF0020103D1C3F812
:10EFE00018159A6010BDC3F80813044B0120BDE842
:10EFF00010401B68184700BF00510050D009002086
:10F00000045100504FF0340CF8B506791C4D0CFB40
:10F0100006FC05EB0C0494F82D707FBB40F20C6EDF
:10F02000A760636084F82F704B7B84F830700F68A2
:10F0300084F8323045F80C2007F01F03DFF84CC08D
:10F04000803300684CF823E04C6804F01F038033E1
:10F050004CF823E08B68C0F80875C0F80C45C0F880
:10F0600024351AB140F30730FEF776FC342303FB56
:10F0700006550123034885F82D30F8BD0248FCE70A
:10F08000D80900200000AD0B0500AD0B0025845011
:10F09000062102680379C2F800153421034A01FBF6
:10F0A0000323022283F82D20704700BFD8090020D7
:10F0B0000268037934200B4900FB031300210A483E
:10F0C0009960C2F80803D2F8000220F4BC50C2F8DC
:10F0D0000002C2F80015012283F82F1083F82D20BA
:10F0E000704700BFD809002002029C0134239446D7
:10F0F00000222DE9F047B34F90F804E0046803FBC9
:10F100000E7383F82E204B680D464BB1CB6803F08D
:10F110006043B3F1005F03D0AB4E3046BDE8F087EB
:10F12000342606FB0E76A94BC4F8083396F82F3028
:10F1300003F0FF0A23B1B368A54EC4F80433ECE72B
:10F140001CF0140F0CBF01230023A94686F82F30B2
:10F1500006F10C08B9E80F00A8E80F00D9F8003054
:10F16000C6F820C0C8F80030CCF3001386F8303061
:10F170006B78C4F88835C4F804A1D4F80431C4F815
:10F1800024A1D4F82431C4F860A1D4F86031C4F8C3
:10F1900048A1D4F848311CF0010318BF0123C4F87A
:10F1A00050351CF0020318BF0123C4F840352B78FA
:10F1B000032B00F2B580DFE803F084A069022A691E
:10F1C00002F06043B3F1005FA6D14FF48073E968A9
:10F1D000C4F800326B68C4F84415C4F848350023FD
:10F1E000C4F85031D4F8501101212162A160D4F843
:10F1F00050110029FBD0C4F85031D4F85031AB681D
:10F20000C4F84425C4F8483534234FF4802203FB66
:10F210000E739A6008236F4E1CF0080F07D12A78EE
:10F22000032A04D00122E2506B6803B962613423DF
:10F2300003FB0EF3FA18FB58002B74D10125D4F808
:10F240004821D4F80411002940F08780003A18BF03
:10F250000122D4F82411002900F08580C4F824315B
:10F26000D4F82411D4F86001D4F8001210B111F4CC
:10F27000007F04D1256265610028E0D00022C90525
:10F2800071D5C4F84831D4F84821D8E76B68EA68EA
:10F29000C4F84425C4F848352B6903F06042B2F144
:10F2A000005F7FF439AFAA68C4F834354FF4845353
:10F2B000C4F83825C4F800323423022203FB0E734D
:10F2C00012E06B68EA681CF0200FC4F84425C4F80B
:10F2D00048354FF034030BD04FF48072C4F800224D
:10F2E0004FF4802203FB0E739A600123236291E79F
:10F2F0004FF40072C4F80022DFE76B68EA68C4F8D4
:10F300003425C4F838354FF48053C4F80032342320
:10F31000022203FB0E739A600123236200237AE723
:10F3200008232D4E78E71CF0040F1CBF00239360C8
:10F330001CF0400F06D1342303FB0E739A6842F091
:10F3400002029A60342303FB0E77BB6843F4007318
:10F35000BB60BB68C4F80433DFE6C4F80431D4F8FA
:10F360000421012275E7002A3FF469AF342100200F
:10F3700001FB0E72D4F8C434C4F8C43482F82F00F0
:10F380008BB1164A13F0010F154E18BF164613F035
:10F39000020F02F1010218BF164613F0040F114BC1
:10F3A00018BF1E46B9E61CF0400F7FF4B6AE2046EB
:10F3B0000EFB017104F0EDF9094B002808BF1E4651
:10F3C000ABE600BFD80900200A00AD0B02029C0189
:10F3D0000B00AD0B0000AD0B0400AD0B0000AE0B3D
:10F3E0000100AD0B0200AE0BF0B55B4B5B4CD3F8EC
:10F3F00024211D4687B0FAB10022C3F82421D3F896
:10F400002421D3F80421BAB9A268C3F80823022240
:10F41000A260A268C3F80423D3F860211AB1D3F81C
:10F4200000329E0503D401224B4B1A625A6101231C
:10F4300084F82E3007B0F0BDD5F80431002B54D03D
:10F440000023C5F80431D5F80431236A5D060AD4D7
:10F4500094F82E303BB941493F4804F09AF980F0C6
:10F46000010084F82E00236A13F0040722D13C4ED9
:10F4700001AD0FCE0FC5336894F830C02B60364B0A
:10F48000C3F86071D3F86021C3F85C71D3F85C21D4
:10F49000BCF1000F02D094F82E205AB10022C3F81C
:10F4A0000022A2602F4AC3F808234FF480622E4B3B
:10F4B000C3F88021284AD2F8C4349807C2F8C4346B
:10F4C0003CD501238DF8003094F830300BB984F826
:10F4D0002F30236A5B0703D594F82E30002BA9D078
:10F4E000D4E9003168469847A4E7C5F84831D5F813
:10F4F0004831237B83B91A4F01AE0FCF0FC63B684B
:10F50000336094F83030002BD4D1C5F80032A360BA
:10F51000144BC5F80833C8E74FF40073C5F8003240
:10F5200040F20223A36003F1CE73C5F80833A36849
:10F53000C5F804330123AB602B627BE7590701D583
:10F540000223BFE7DA0701D50323BBE794F82E3087
:10F55000002BB7D00423B5E700A00050D809002045
:10F56000E409002002029C0100E100E02DE9F041E5
:10F57000012540F20D631C4C01F01F0600F01F0036
:10F5800005FA00F806F180028030B540C4F8088022
:10F59000A56044F82030042044F8223004F0ECF850
:10F5A000092723691D4210D00420E56004F0E4F827
:10F5B0000420A56004F0E0F821690C4821FA06F661
:10F5C00006F00106801BBDE8F0810420C4F80C8021
:10F5D00004F0D2F8013F0420C4F8088004F0CCF80D
:10F5E00017F0FF07DDD1DFE7002584500100AD0BE8
:10F5F0000E4B70B553F82040013053F82060A642FE
:10F6000000D870BDD4E900352846984765B1EB684D
:10F6100030B10028B8BF4042FF28A8BFFF201870B3
:10F620005A7842F001025A700834E8E7D43F0100EA
:10F6300070B5054610B90024204670BD0378002B34
:10F64000F9D00F4A0F4C1646944208D10D4CB442E3
:10F65000F1D0204604F0CEF850B91834F7E7204630
:10F6600004F0C8F810B12368AB42E5D01834EBE7DA
:10F670002846216803F04DFF0028EED1DCE700BFEB
:10F68000903B0100303B01000023012210B586B001
:10F69000CDE904230F220193CDE9023218230B4A4E
:10F6A0000B4C03FB00234FF4A0720A4904EBC01477
:10F6B00002FB001100932046074B00F003F9637B27
:10F6C00023F00403637306B010BD00BF0C0A0020D2
:10F6D0005001002018250020E1F90000012208B5A2
:10F6E000094B02201A70FFF783FF04F0F1F90320A1
:10F6F000FFF77EFF00F016F903F0FFFC034A137BCF
:10F7000023F00103137308BD55130020D00100201E
:10F710000248034A0021121A03F039BF30010020C9
:10F720001415002080B5364BA6B003F5006787F3AB
:10F73000088883F30A880024E023324D324E85F88E
:10F740002230EC772C766C76AC7685F82040EC761F
:10F750006B6ADFF8C89043F4E0236B626B6A43F492
:10F7600000236B62AC63EB689BB243F0BF6343F46E
:10F770000833EB6085F82340FEF706FBFEF7CEF872
:10F780004FF0FF33AB62EB62FEF766FDFEF720FC45
:10F7900040F20113ADF8243006ABB360CDE91F444D
:10F7A00004F027F82046FFF723FF0120FFF720FF92
:10F7B00000F08AFC154B164D0593012315494FF4B3
:10F7C0008052CDE9034328464B46CDE901440094DD
:10F7D000F56100F077F880466A7B284622F0040243
:10F7E0006A7304F0B6F82046FFF74EFF0A4B4A460C
:10F7F00041462846F36034757760FEF773F900BF21
:10F800005826002000ED00E00C0A00204E450100C3
:10F81000D00100201815002050010020DDF6000066
:10F8200070B50E4B0E4CA34201D3002070BDD3E93E
:10F83000030141EA000212F003020BD19D685A61F4
:10F84000AA4201D11C33EEE75E6901320E605961B4
:10F850000144F5E76FF01500E8E700BFE000002085
:10F86000E0000020D3B50C4616461F464FF020039B
:10F87000EFF3118183F31288BFF36F8F43695BB19C
:10F8800023601B684361836901338361002081F336
:10F890001188BFF36F8F11E056EA070203D16FF0B2
:10F8A0000B002360F3E70246CDE90067083000F063
:10F8B0005DFB18B9024B9B685B69236002B0D0BD49
:10F8C0000C0A00202DE9FF410E9E00F15805067339
:10F8D0000426C0E916550025044646730D9EC0E96E
:10F8E00006558673D61D0C9A26F00706C0E9191630
:10F8F0008560C573C56602920B9A01EB06080192FA
:10F900000A9A00924246FEF7D1F8054B65659B685E
:10F9100003B11B6F4046236704B0BDE8F08100BF10
:10F920000C0A00202DE9F0472A4E2B4DB04686B038
:10F93000B54205F1300410D300F0D0F94FF400497E
:10F9400040F2E7360027244CDFF890A0444521D34D
:10F9500006B0BDE8F04700F09BBB54F8043C0593AB
:10F9600054F8103C049354F8143C039354F8183C96
:10F97000029354F81C3C019354F8203C009354E942
:10F980000A2354E90C01FFF79DFF54F8303C5D65F4
:10F990002546CDE7636A5A1C0DD03046394623EA26
:10F9A000E373C9FB0301B94208BFB042256804D123
:10F9B000284600F07FFA3034C8E74FF47A7200230B
:10F9C000FCF73CFD02460B4605F11800514600F0DD
:10F9D000F1FCF0E7E0000020E000002073390100B6
:10F9E00008B5094C4FF02002EFF3118382F312881F
:10F9F000BFF36F8F04F03AF8A061FDF705FC002813
:10FA0000F0D1FDF791FFEDE70C0A00202DE9F3415D
:10FA1000044616461F464FF02003EFF3118883F388
:10FA20001288BFF36F8FC368354A6BB180689168E5
:10FA3000884219D056EA070318D188F31188BFF31A
:10FA40006F8F6FF00F000CE0916891F90E10013389
:10FA5000E36093682161A36088F31188BFF36F8F1F
:10FA6000002002B0BDE8F0812169F0E791F90E10A5
:10FA700090F90E306FF07E029942A8BF194691426C
:10FA8000B8BF11468B422FDD00F084FA05462246AE
:10FA90004146CDE900671B4800F068FA0028E0D035
:10FAA0004FF02003EFF3118683F31288BFF36F8FBB
:10FAB000236821699C420AD04BB193F90E309942D8
:10FAC000A8BF19466FF07E039942B8BF1946A068D7
:10FAD00090F90E30994209D16DB13146094800F0D4
:10FAE000EBF86FF00A00BCE70025D0E700F052FA0F
:10FAF0000028F2D1F0E786F31188BFF36F8FF0E7AB
:10FB00000C0A00205613002038B583680446002BE9
:10FB100036D01E4A9268934235D1DA7B013ADA73C5
:10FB2000C368012B05D9013BC36000F0B1FA002086
:10FB300038BD4FF02003EFF3118583F31288BFF334
:10FB40006F8F0169806890F90E30994201D000F002
:10FB500021FA204603F05CFFA06058B190F90E2016
:10FB600022610022826703F0F4FE2946084800F073
:10FB7000A3F8DAE7E06085F31188BFF36F8FD4E76D
:10FB80006FF01500D4E74FF0FF30D1E70C0A0020EA
:10FB90005613002038B504464FF02003EFF31185CB
:10FBA00083F31288BFF36F8F03F032FF48B1002256
:10FBB000826703F0CEFE2946BDE83840044800F0D5
:10FBC0007BB8D4E902329A4218BF0133A360F2E74E
:10FBD0005613002037B514461D464FF02003EFF3AF
:10FBE000118183F31288BFF36F8F836843B1013BA8
:10FBF000836081F31188BFF36F8F002003B030BDA5
:10FC000054EA050306D181F31188BFF36F8F6FF0BB
:10FC10000F00F3E70246CDE90045024800F0A6F9DF
:10FC2000ECE700BF5613002010B5084C23685BB109
:10FC3000FFF71AF803462068054A03440021BDE88F
:10FC40001040136103F022BF10BD00BF3C0A00202A
:10FC50000C0A0020F8B504460D464FF02003EFF3E0
:10FC6000118683F31288BFF36F8F00224FF4004791
:10FC700040F2E73000210D4BE7FB04011A6100233D
:10FC80004FF47A72FCF7DAFB002C094B09DC1860A0
:10FC9000084B1D60FFF7C8FF86F31188BFF36F8F15
:10FCA000F8BD0228B8BF0220F1E700BF0C0A00200F
:10FCB0003C0A0020380A002049B9EFF3058030B92A
:10FCC000054BDA699B689A4201D0FDF799BE81F332
:10FCD0001188BFF36F8F70470C0A00204FF020038C
:10FCE000EFF3118183F31288BFF36F8F044B9A688F
:10FCF000D37B013BD37381F31188BFF36F8F7047C0
:10FD00000C0A002038B502460C4803F018FE0C4DD2
:10FD1000044600B9EC68AB684AB95A7BD20606D1F2
:10FD2000A26922B9DA897F2A01D9EB6138BD9C42E8
:10FD300001D0FFF779FFEC61F8E700BF2C0A002043
:10FD40000C0A002070B590F90D200146002A437B73
:10FD500004DA03F07F03437303F0C9FD174A4B7BBA
:10FD6000104663F07F034B7350F8203F556A83427F
:10FD700008BF0023002B38BF0023CBB191F90E60E0
:10FD800093F90E40A6420FD0A41B002C0CDD58683E
:10FD9000C1E90030016059609068BDE87040431AC5
:10FDA00058425841FFF7AEBFAB4201D01B68E4E7B1
:10FDB000C1E9000529605162EEE700BF0C0A00208E
:10FDC000014670B54FF02003EFF3118483F31288DE
:10FDD000BFF36F8F164B174A98681568A8421D46E7
:10FDE00006D1FFF721FF84F31188BFF36F8F70BD39
:10FDF00000261660104A1268BAB1C2897F2A14D848
:10FE0000427BD20611D10D4A90F90E6012689642DB
:10FE10000BDB0B4A904208D01A698A4202DCFFF7DA
:10FE200091FFDEE7521A1A61DDE700232B61DAE762
:10FE30000C0A0020340A00203C0A0020380A002066
:10FE40005001002070B490F90D30427B002B2DDB67
:10FE5000D3062BD183694BBB154962F07F024273F5
:10FE60000A4652F8204F4D6A944218BF2346002B91
:10FE700038BF0023ABB190F90E6093F90E40A64253
:10FE80000BD0A41B002C08DD5A68C0E900321060BA
:10FE90005860002070BCFFF735BFAB4201D01B6833
:10FEA000E8E7C0E9002528604862F2E770BC7047C7
:10FEB0000C0A002010B54FF02002EFF3118482F3FA
:10FEC0001288BFF36F8F427B510704D484F31188EB
:10FED000BFF36F8F10BD22F004024273FFF7B2FF31
:10FEE0002146BDE810400148FFF7E6BE561300204A
:10FEF00008B590F90D200146002A437B04DA03F08F
:10FF00007F03437303F0F3FC044B9868431A584291
:10FF10005841BDE80840FFF7F5BE00BF0C0A0020BD
:10FF20002DE9F041064614461D464FF02003EFF33D
:10FF3000118783F31288BFF36F8F03F03CFD87F3C3
:10FF40001188BFF36F8F6B1C08BFB4F1FF3F08D05F
:10FF500022462B4606F118000349BDE8F04100F0A7
:10FF600029BABDE8F08100BF7339010010B50C4615
:10FF7000064B11469868064B1860DDE90223FFF72F
:10FF8000CFFF2046BDE81040FDF73ABD0C0A002027
:10FF9000340A0020F8B504464FF02003EFF3118631
:10FFA00083F31288BFF36F8F437B49B2DA0638D1EF
:10FFB0008569002D35D103F07F03437303F097FC6F
:10FFC000437B817363F07F0343731748034653F801
:10FFD000207F9F4218BF3D46002D1A462B4638BF52
:10FFE0000023476AC3B193F90E50A94210D06D1A8D
:10FFF000002D0DDD5A68C4E9003214605C600120F8
:020000040001F9
:10000000FFF780FE012086F31188BFF36F8FF8BDE4
:10001000BB4201D01B68E5E7C4E900273C604462AD
:10002000EDE70020A173EEE70C0A002070B504464E
:10003000183003F005FD4FF02003EFF3118683F332
:100040001288BFF36F8F94F90D20637B002A05DAC5
:1000500003F07F032046637303F049FC0B4D637B81
:10006000A86843F010036373031B58425841FFF71D
:1000700049FE86F31188BFF36F8FAB68A34203D1AB
:10008000BDE8704003F051BC70BD00BF0C0A0020F9
:1000900010B54FF02003EFF3118483F31288BFF300
:1000A0006F8F084B00209A68D37B0133D373FFF71F
:1000B00029FE84F31188BFF36F8FBDE8104003F071
:1000C00034BC00BF0C0A00200021044B084603F199
:1000D0002002C3E90822FFF7BDBD00BF0C0A0020C3
:1000E000F8B54FF02003EFF3118483F31288BFF3C8
:1000F0006F8F1B498868437B03F07F03437303F0D2
:10010000F6FB08468A68537B63F07F03537350F80D
:10011000203F4E6A834208BF0023002B38BF0023D4
:10012000CBB192F90E7093F90E50AF420FD0ED1B88
:10013000002D0CDD5968C2E900310A605A600120C7
:10014000FFF7E0FD2046BDE8F840FDF759BCB3429B
:1001500001D01B68E4E7C2E9000632604A62EEE7BC
:100160000C0A00202DE9F04104460D4654EA050131
:1001700004D1FFF7B5FF0020BDE8F0816FF0010169
:100180000A1A4FF0FF3161EB0503012A73F10003F6
:100190002ADA03F095FC06194FF02003EFF31188DB
:1001A00083F31288BFF36F8F114F124BB86818603A
:1001B000FFF79EFEB868104922462B46183000F023
:1001C000F9F8BA684046537B43F010035373FDF7C8
:1001D00017FC03F075FC301A66EB0601012871F17B
:1001E0000003B8BF0020C7E76FF00106361AD3E757
:1001F0000C0A0020340A00207339010008B50B46B0
:10020000013308BFB0F1FF3F06D1084B9868FFF7F4
:100210000DFF4FF0FF3008BDFFF7A4FF4FF47A73D6
:1002200080FB0323D00B40EA4340F4E70C0A002094
:10023000014B9868704700BF0C0A00202DE9F0417F
:1002400004464FF02003EFF3118683F31288BFF3C7
:100250006F8F437B1A0705D586F31188BFF36F8F25
:10026000BDE8F08123F0200242F00801D20920D13C
:100270004173A36813B1204603F041FB04F1180059
:1002800003F0DEFB4FF0000804F15807A56DBD42F6
:1002900000D0B5B90120FFF735FD104B9B68A34294
:1002A000DAD1EFF30583002BD6D13046FDF7A8FB5A
:1002B000D2E703F05F0343F00803437303F017FB37
:1002C000D7E7284603F01BFB05F1180003F0B8FB45
:1002D0002846C5F87880FFF7B5FDD7E70C0A00205F
:1002E00008B50648064A0749121A03F045F9BDE861
:1002F0000840054A0549064803F03EB900000020C1
:100300003001002058450100000000005845010060
:1003100000000020034B1B680BB9FEF7A5BC0020B2
:10032000704700BF400A002030B5036868B10A4A30
:100330005268904209D043B1D3E90421D0E9044581
:10034000121945EB0101C3E90421426813605A60A8
:100350000023C0E9003330BD5800002038B5134BEE
:100360001C689C4208BF0024FFF7D4FF0546BCB1BF
:10037000D4E90401401B61EBE571012871F1000330
:1003800011DB6FF000420023824273EB010400DABC
:100390001046074B1B6913B19842A8BF184638BDD9
:1003A0006FF00040F5E70020F3E700BF58000020A1
:1003B0000C0A0020B3F1FF3F08BFB2F1FF3F2DE967
:1003C000F74F044692469B4673D081604FF020035E
:1003D000EFF3118583F31288BFF36F8F6FF0010382
:1003E0004FF0FF32B3EB0A0862EB0B09B8F1000FD4
:1003F00079F100011CDB3048D0E900105B1A62EB98
:100400000002B3EB0A0662EB0B07012E77F1000343
:10041000BCBF01260027C4E90467284AD2E9003C92
:1004200093421ED1C4E9002CCCF8004054602DE06A
:10043000FFF770FF1AF1010300934BF100030193E2
:10044000DDE90023121843EBE073C4E90423E4E779
:10045000B6EB080067EB09016345C4E90401E1D08C
:100460001B68002BDED0D3E90489D4E90467464534
:1004700077EB0901ECDAB8EB060069EB0701C3E999
:1004800004015968C4E900310C605C601368934250
:100490000BD09C4209D1FFF761FF18B1084B1B69D3
:1004A000834202D00021FEF7AFFB85F31188BFF332
:1004B0006F8F03B0BDE8F08F50020020580000207D
:1004C0000C0A00202DE9F74F0646FFF779FC4FF0A4
:1004D0002003EFF3118483F31288BFF36F8FDFF8EB
:1004E000B0A02A4D5146DFF8ACB02E60D5F800C060
:1004F000DBF800006246DAE90089D3175845CDE9F8
:1005000000230DD060B1D0E90467B445BB411DDACA
:10051000009BB6EB030C019B67EB0306C0E904C626
:100520000026009B2E6013EB0802019B43EB09039E
:10053000C1E90023FFF712FF3146FEF765FB84F3A4
:100540001188BFF36F8F03B0BDE8F08F0022002346
:1005500018EB060849EBE679C0E90423ACEB060684
:10056000CAE900892E60FFF7DFFE84F31188BFF32C
:100570006F8F836898474FF02003EFF3118483F364
:100580001288BFF36F8F0249B0E700BF400A002016
:10059000500200205800002010B54FF02003EFF368
:1005A000118483F31288BFF36F8FFEF75DFB064B58
:1005B000D3E90023121843F1000384F31188BFF339
:1005C0006F8F1046194610BD5002002010B50C4C1C
:1005D000236813B10B4B1B682BB900F0BBFA30B981
:1005E0000122084B1A6001230020236010BD01384E
:1005F000062801D9044810BD044B53F8200010BD53
:10060000440A0020480A0020FE8FFFFFEC3F010053
:10061000BFF34F8F0549064BCA6802F4E0621343EB
:10062000CB60BFF34F8F00BFFDE700BF00ED00E0E0
:100630000400FA054FF0FE33002130B4064A074D9E
:10064000074C2B6013602360064A074CEB6063681D
:10065000C2F8001530BC18470414845000148450AC
:10066000081484500000845060000020024BD0E940
:100670000012C3E900127047600000202DE9F0432A
:10068000154CDFF85C80002818BF0446206883B052
:1006900040451DD016460D4620464FF4DE7104F14C
:1006A000040900F09BFE04F58C77484600F03EF903
:1006B000384601F075FA4A4638462B4607490096F7
:1006C00001F080FA08B9C4F8008003B0BDE8F083F7
:1006D000002003B0BDE8F08358130020AD090100ED
:1006E000A5BCC95AF0B50D4C0D4E002808BF2046D8
:1006F000076883B0B7420ED100261D4600F58C7006
:1007000033460096144601F0ADFA002818BF34466F
:100710002C6003B0F0BD0348FBE700BF5813002076
:10072000A5BCC95AE88FFFFF10B5044630B1636815
:10073000DB0602D500232360636010BD024B034833
:100740005B689847F3E700BF6000002008400100A5
:1007500068B143683BB1DB0607D5BFF35F8F002369
:1007600003601846704703487047034870476FF4AA
:10077000E0407047EA8FFFFFE98FFFFF10B50446A6
:1007800020B1002211232260636010BD0148FFF7F1
:1007900051FFF6E730400100A0B1436883B1DB06AA
:1007A0000CD50122D0E8EF3FC0E8E12F0029F9D1B4
:1007B000012BF7D0BFF35F8F0020704703487047CD
:1007C000034870476FF4E040704700BFE98FFFFFB8
:1007D000EA8FFFFF2DE9F041144C0268C368D0E9AD
:1007E0000156C4E90263C4E90025114B0E6848684C
:1007F000104DC3E90060D1E902760869D5F81411FB
:10080000C3E902761861CB060DD5002305F5887083
:10081000C5E94433C5E96D339047236805F5DA70BF
:10082000BDE8F0411847BDE8F08100BF700000202E
:1008300080000020581300202DE9F043202B1D4696
:100840000646894690468BB026D8DBB202AF3168A7
:100850008DF804908DF8053006F1040921B9484659
:1008600000F062FE044640B901230222484633608C
:1008700001A900F06DFE044638B13846202100F091
:10088000ADFD20460BB0BDE8F0832A464146484600
:1008900000F05EFE0446F0E702AF19461046002362
:1008A0003A4601F0D3FA04460028E6D12023B846A0
:1008B0001D46CCE7F0B5D0F8F430A7B0002BD8BF78
:1008C00002AE2CDD05460023D0F8084102AE0193AC
:1008D000A4F101073146D5F8F8409022D0F8FC0089
:1008E00001ABB7FA87F7A0477F09044610B9019B0F
:1008F0003BB9A7B13046902100F070FD204627B0EB
:10090000F0BD014632462846FFF796FF50B9D5F8AC
:100910000031019A1344C5F80031002FEAD16FF07D
:100920003C04E7E70446204627B0F0BD70B500253B
:10093000044629461422C0F8F450F83002F027FE8D
:10094000164B04F586761B6830469847204640F8DB
:10095000045B00F0CFFD124B30461B689847D8B9B6
:10096000D4F8F430AB4211DC0121202503EB8302E3
:1009700004EB8202C2F8FC000A480B44C2F804519E
:10098000C2F8F800C2F80811C4F8F430064B30463B
:10099000BDE870401B68184770BD00BFC400002050
:1009A000C8000020F1130100CC0000202DE9F04721
:1009B000202A88B078D83E4B00F5867904461B681B
:1009C0004846174688469847054640BB40F2011600
:1009D000D4F8F430002B63D02046FFF76BFF0546B8
:1009E00000285FD1D4F8F430002B07DDD4E94002B1
:1009F000904203D3D4F80821012A14D0013EE9D152
:100A00006FF03B056E463046202100F0E7FC294B95
:100A100048461B689847002818BF6FF01D052846F8
:100A200008B0BDE8F0871F28E8D96E462946202285
:100A3000304604F1040A02F0AAFD3146504600F0A7
:100A40008FFD05460028DED1504600F067FD504678
:100A500000F050FD2946504600F066FD054600288E
:100A6000D1D150462022314600F072FD05460028C3
:100A7000C9D1034632462021304601F0E7F9054648
:100A80000028C0D1D4F8F4303A46002BC8BF002368
:100A900040463146C8BFC4F8003102F06DFDB2E7F0
:100AA0006FF03F056E46AEE76FF03B05B7E700BF5E
:100AB000C8000020CC000020002130B58DB02822D5
:100AC00002A8019102F063FD02A801F0E7F90446D3
:100AD00010B120460DB030BD184D4FF0FF312868E1
:100AE00000F03AF90446C0B9002000F065F900BBF7
:100AF000134A02A901A800F063FC0446012000F09B
:100B00005BF990B9286800F02FF90028E1D00D4872
:100B1000FFF790FD20460DB030BD0B48FFF78AFD72
:100B2000012C08BF0524EDD0DEE70848FFF782FD61
:100B3000E8E70748FFF77EFDDAE700BFC0000020C6
:100B4000C40A0020AC400100544001008C40010068
:100B50006C40010010B582B000F054F828B100F0EC
:100B6000A3F80324204602B010BD00F06FF8D0B9FE
:100B700000F022F9D8B91E4B1B681B0EF02B0AD1CE
:100B80001C4A1D4B12689A4229D000F03DF80724F8
:100B900000F08AF8E6E7062400F036F800F084F862
:100BA000204602B010BD0424204602B010BD00F063
:100BB0002BF800F079F8FFF77FFF044658B902469A
:100BC0000146FFF75BFD30B968220C4901ABFFF726
:100BD00089FD0028C6D00524204602B010BD0120A2
:100BE00000F0EAF80028E2D1054B1860E3E700BF07
:100BF00028198450241A84500000E0205C0A002048
:100C00000C1A84500020704700207047430503D51C
:100C10004FF0FF32024B1A60024B1860704700BF62
:100C200008118450081A8450014B1860704700BFA7
:100C3000041A845008B100F06DB84FF47500704785
:100C400008B100F04FB84FF47500704710B5114867
:100C500000F06EF800B110BD0F4800F069F80028F0
:100C6000F9D10E4C204600F063F80028F3D10C4B6C
:100C70000C481C6000F05CF801460028EBD100F045
:100C80002DF8044608B1204610BD00F077F8204644
:100C9000FAE700BFBC000020B0000020B800002030
:100CA000C0000020B400002008B5084800F04AF851
:100CB000074800F047F8074800F044F8064800F0FD
:100CC00041F8BDE8084000F00BB800BFBC000020B0
:100CD000B0000020B8000020B400002000207047C1
:100CE000704700BF0246074803681342FCD021B199
:100CF000054B06481B680B600360054B00201A601B
:100D0000704700BF001A84500411845008118450A9
:100D1000081A8450024604490B681A42FCD0034B5F
:100D200000201A60704700BF001A8450081A8450CF
:100D300008B5034B02681B6810689847002008BD7F
:100D40007000002008B5034B02685B681068984784
:100D5000002008BD70000020024B02689B681068EC
:100D6000184700BF7000002008B5034B0268DB681D
:100D700010689847002008BD7000002070B5094C2D
:100D8000094D2069AB68984718B1084B08485B6863
:100D900098470021074AEB6811602069BDE8704060
:100DA000184700BF80000020700000206000002075
:100DB000C4400100E40C002070B51A4D1A4E0446E0
:100DC000B26828699047F0B95CB1184C2368ABB1A0
:100DD000012B1AD0013B23602869F3689847002053
:100DE00070BD124C216839B90120114B114AC3F86A
:100DF00000051368002BFCD101312160F3682869DC
:100E00009847002070BD0C4870BD0A4A1368002B3B
:100E1000FCD1074A6FF07E40C2F80035FFF704FFAF
:100E20002368D7E78000002070000020E40C002039
:100E30000000845010198450E98FFFFF014B1B689C
:100E4000184700BF70000020014B9B68184700BF87
:100E500070000020014BDB68184700BF70000020C5
:100E60002DE9F843002878D00C46002975D01D469E
:100E7000002B72D006461AB1012200232A600360BB
:100E80002B68002B65D02946204601F003F9074660
:100E900000285FD12146286801F0DEF807460028C7
:100EA00058D12B68082B67D0042B68D0A3F1020817
:100EB000B8FA88F84FEA581801239C46314A32495B
:100EC000136010460B60943AC0F800C0636A136068
:100ED00011688B42F8D14FF000092C4B4FF0FF30D6
:100EE000C3F80090FFF792FE6FF01B02284B4846B4
:100EF0001A60FFF799FE274A274BC2F8008018684E
:100F000040F48060FFF790FE0A22244B1A60089A92
:100F10002369012A616A24D0214AA2FB03231B0909
:100F2000012203FB01F303EB43031E49DB039B098F
:100F30000B60164B38461A6033682A6823F07F43EB
:100F400043EA026333602A6843EA02233360BDE860
:100F5000F883154F3846BDE8F883144F3846BDE88E
:100F6000F8834FF47F03D3F80C2C013202D0D3F86E
:100F70000C3CD1E71623D3E74FF003089CE74FF072
:100F8000020899E7C4118450401184502C118450F8
:100F9000001184500C118450041A8450381184506C
:100FA000ABAAAAAAD8118450310CF100350CF1007B
:100FB000F0B40024C9002646274601F1FF3C06E0B4
:100FC0009F4215D00126654518D82C461F46630957
:100FD00050F8233004F01F01CB401F2904F1010514
:100FE00018BF03F00103002CEAD101263546ECE7D7
:100FF00001369642E7D10348F0BC70470020F0BCB0
:10100000704700BF360CF10000285FD02DE9F04199
:101010004C1EB4F5047F26D22BB322B3CC00012B97
:1010200004F1FF3E2FD000218C460F460D4603F100
:10103000FF384C0950F8244001F01F06F4401F2EE1
:1010400018BF04F0010421B90125AC462946274602
:10105000EFE7AB4213D0A74201D10CF1010C45459B
:1010600004D1624502D21A48BDE8F0813C46013104
:101070008E4505F10105EAD20020BDE8F08100258A
:101080004FF0010CF3E70026B446374631464B09D2
:1010900050F8233001F01F05EB401F2D18BF03F05F
:1010A000010339B15FB99C4501D0634608E063464E
:1010B000013605E0012631469C460127E7E73E461A
:1010C000B242D0D30131A142F6D1D5E700487047F2
:1010D000370CF1002DE9F04F8DB0189E07460C46F5
:1010E000179D002E4CD1D1F810B000211D60169B29
:1010F0001960002A00F022819C4A9D4B1168626AA7
:101100001B689A4247D10A2945D1FB7804930423EE
:10111000B8460293974BA3FB0B234FEA930A0AEBC3
:101120004A0305F108020392ABEB430A169BC3F88E
:1011300000B0BBF1000F00F0C7805D464FF0000922
:10114000039E00F0B7FF00230593B8F1000F00F0F5
:10115000E980002C00F0E680049B002B00F0E0808A
:10116000204604A900F096FFB8B1834B984240F0A6
:10117000AB80029000F09EFF02980DB0BDE8F08FAA
:101180004FF47F01D1F80C0C01300CBF4FF4047BFD
:10119000D1F80CBCA9E77948EBE72146049800F0A8
:1011A0005BFF0028E1D1049F082F00F0BD80042FD1
:1011B00000F0BC80A7F10207B7FA87F77F09012387
:1011C00019466F48036040F8843C6D4B68481960CD
:1011D000636A036000688342F7D10023694A4FF0D5
:1011E000FF301360FFF712FD00236FF01B0118465C
:1011F000654B1960FFF718FD6449654B0F6018686F
:101200005C4F40F48060FFF70FFD0A210122574B2D
:10121000604819602169636AA7FB01C1090903FBE2
:1012200001F303EB4303DB039B090360554B05A864
:101230001A600499D8F800200B0243EA016322F0F7
:101240007F421343C8F8003000F0F6FE059B03F020
:101250001A03034338D1504BA7FB05271A681433F0
:10126000069253F8102CB9EB970F079253F80C2CF9
:10127000089253F8082C099253F8042C0A921B6820
:101280000B9302D1BAF1000F41D1182230460DEB79
:10129000020100F041FE183D183609F10109002D48
:1012A0007FF44FAFBBF5047F5DD8039D59462846B8
:1012B0006269FFF77DFE00284BD00023169A136069
:1012C0002D4B98423FF455AF049D082D34D0002299
:1012D00004AB214640466D0000920495FFF7C0FD27
:1012E0002E4B984224D000287FF443AFD8F800203A
:1012F000130A03F47F03134323F07F43C8F800303D
:10130000029B013B02937FF411AF002031E730468E
:10131000524606A900F000FEA5EB0A055644BCE7BC
:101320001E4822E71E4820E7032748E7022746E732
:10133000236A002B3FF41DAF1A481AE70122214609
:101340003846009604ABFFF78BFD00283FF4DFAE74
:101350000FE74FF4806359462846A269FFF754FE11
:101360000028AAD1D1E7169B1D60ADE73811845043
:1013700030118450ABAAAAAA020CF100300CF10083
:10138000C41184502C118450001184500C118450CD
:10139000041A8450D811845014118450310CF10077
:1013A000350CF100320CF100002330B4DDE90345C7
:1013B0000493029BCDE9024530BCFFF78BBE00BF12
:1013C00010B5012486B005ABCDE9012400930022BD
:1013D00004ABFFF77FFE06B010BD00BF38B131B1DE
:1013E000002201440346013081421A70FAD170474D
:1013F0002DE9F04188B00592002968D01C46002BE9
:1014000065D01546002A62D0DFF8E4800E46D8F891
:1014100000004FF0FF31FFF79FFC00284CD1002067
:10142000FFF7CAFC002843D12A4800F037FDE8B195
:1014300001204FF0FF37FFF7BFFC002834D14FF4F5
:1014400008712548FFF7CAFF04212448FFF7C6FFAB
:1014500020482821FFF7C2FFD8F80000FFF784FCDE
:1014600000282DD1384608B0BDE8F0811A4907ABF5
:10147000024603900291009316491848019405AB67
:10148000FFF792FF0028D3D12368AB42D0D307994E
:1014900007462A463046083100F03EFD012025600F
:1014A000FFF78AFC0028CAD00D48FFF7C3F8C6E74B
:1014B0000C48FFF7BFF8B7E70B48FFF7BBF8AEE7FC
:1014C0000A48FFF7B7F8384608B0BDE8F0814FF09A
:1014D000FF37C7E70C0F0020EC0C0020E80C0020C1
:1014E0008C4001006C40010054400100E4400100C8
:1014F000C000002010B5044628B12046BDE81040C9
:10150000F02100F00DBD0448FFF794F82046BDE837
:101510001040F02100F004BDFC40010010B1F021AA
:10152000FFF75CBF704700BF08B561B1012907D163
:10153000022100F039F8002818BF6FF0360008BD0E
:101540006FF0360008BD012100F02EF8F3E700BF70
:1015500008B500F06BF8002818BF6FF0360008BD22
:1015600070B5E8B10E46D9B1044600F031F8054631
:10157000B0B92368012B0BD0022B01D0284670BDD7
:1015800030461C2204F1080100F0C6FC284670BD5C
:101590003046202204F1080100F0BEFC284670BD50
:1015A0006FF03605EAE700BF78B138B50D46F02197
:1015B000044600F0B5FC402320462560E36500F0BA
:1015C000BFFD003818BF012038BD0120704700BFA3
:1015D00070B5056EA4B0044604AEE5B9012200233F
:1015E000626030462946CDE9003302AA00F070FD62
:1015F00010B1012024B070BD2A46204602A900F097
:10160000C9FD0028F5D1204600F0EEFE0028F0D1FB
:10161000206624B070BD802D2A46304628BF802227
:1016200004F1640100F078FC256ED7E7002855D05E
:10163000F0B51546A5B0B2B10E4651B30446D0E997
:1016400017301A1AB2FBF3F703FB1727AF4228BF74
:101650002F46002F44D1834208D0B5FBF3F703FB9C
:1016600007F7CFB96DBB284625B0F0BD802B28BF4A
:10167000802304F164011A4604A800F04DFC002305
:10168000CDE9003304A8E16D02AA00F021FD002895
:1016900033D0012025B0F0BD002339463046CDE9D6
:1016A000003302AA00F014FD0028F2D13A46204689
:1016B00002A900F06FFD0028EBD1ED1B3E44002D88
:1016C000D1D0206E2A461930314604EB800000F05C
:1016D00023FC226E00202A442266C5E701207047C1
:1016E00004F1640318443A4600F016FCD4E91730BC
:1016F00038443E44ED1B2066ADE72046E26D02A96A
:1017000000F048FD0028C4D1E36D2066A5E700BFC6
:101710002DE9F04FB2F5C07FAFB000F22C81DFF8B9
:101720006C9290460C464FF4D07200218246484697
:1017300001F02DFF11A800F097FE00222023214682
:10174000A9F8102098FA98F4424609F11800A9F86F
:10175000124089F8173001F00FFF8022874B88492B
:10176000884C09EB0800CDE902410276019311A8EB
:1017700003F10C3301A9049300F08CFE0746002806
:1017800040F0D88008F1190805AE0DF1240B1022A5
:101790000021304601F0FBFE45467B4C9DF81420AD
:1017A00014F8103C9DF815C014F80F1C9DF8160095
:1017B000534014F80E2C8CEA010C50409DF8171081
:1017C00014F80D2C9DF818E0514014F80C2C8DF8ED
:1017D00014308EEA020214F80B3C9DF819E08DF8E3
:1017E00015C08EEA030314F80ACC9DF81AE08DF8B0
:1017F00016008EEA0C0C14F8090C9DF81BE08DF80D
:1018000017108EEA000014F8081C9DF81CE08DF8F3
:1018100018208EEA010114F8072C9DF81DE08DF8C0
:1018200019308EEA02029DF81E3014F806EC8DF88D
:101830001AC083EA0E038DF81B008DF81C108DF87A
:101840001D208DF81E309DF81F1014F8053C9DF8E2
:1018500020C09DF821004B4014F8042C14F8031C00
:101860008CEA020241409DF822C014F8020C9DF857
:1018700023E08CEA000014F801CC8DF81F308EEACA
:101880000C0C8DF820208DF821108DF822003346A5
:101890003246012111A88DF823C000F015FE102D4D
:1018A00094BF6D1B103D002863D11034002D7FF4D0
:1018B00075AF0BEB07001022314601F05DFE99F881
:1018C000033010370133202F89F803307FF45FAFE6
:1018D0008022594611A800F0DDFD074668BB54463A
:1018E0000AF120050DAB1A46012111A800F0ECFD0C
:1018F000074610BB102220460DA9144401F03CFEFF
:10190000AC42EFD111A800F0BFFD4FF4D0711F48D9
:10191000FFF764FD58462021FFF760FD01A8102164
:10192000FFF75CFD30461021FFF758FD38462FB019
:10193000BDE8F08F05AE0DF1240B11A800F0A4FD59
:101940004FF4D0711148FFF749FD58462021FFF7A9
:1019500045FD102101A8FFF741FD30461021FFF79A
:101960003DFD50462021FFF739FD38462FB0BDE838
:10197000F08F0746E1E76FF03707F6E70001020353
:1019800008090A0B04050607440F0020340F002045
:101990002DE9F0412022044688B00D46684600211A
:1019A000A6186F4601F0F3FDE27B0132D2B2E2737A
:1019B000002A4DD1A27B0132D2B2A273002A47D1B4
:1019C000637B0133DBB26373002B41D1237B013393
:1019D000DBB22373002B3BD1E37A0133DBB2E3723A
:1019E000002B35D1A37A0133DBB2A372002B2FD1A8
:1019F000637A0133DBB2637253BB237A0133DBB208
:101A000023722BBBE3790133DBB2E37103BBA37910
:101A10000133DBB2A371DBB963790133DBB26371EC
:101A2000B3B923790133DBB223718BB9E378013386
:101A3000DBB2E37063B9A3780133DBB2A3703BB9C7
:101A400063780133DBB2637013B9237801332370F9
:101A50003B4622460121304600F036FD80460028F4
:101A60002AD1103708AB9F429ED100992B686A6833
:101A70004B40019930464A40AE680299009371404C
:101A8000EB68039E019273402A69049E02915640BE
:101A900005996A6903935140D5E90623069D05918E
:101AA0005540079A694653408022CDE90653049673
:101AB00000F0F0FC804638B168462021FFF78EFC2C
:101AC000404608B0BDE8F081102220460DEB02012F
